:100000000C9472000C943F020C9493000C94930097
:100010000C9493000C9493000C9493000C94930014
:100020000C9493000C9493000C9493000C94930004
:100030000C9493000C9493000C9493000C949300F4
:100040000C9493000C9493000C9493000C949300E4
:100050000C9493000C9493000C9493000C949300D4
:100060000C9493000C9493000C9493000C949300C4
:100070000C9493000C9493000C9493000C949300B4
:100080000C9493000C9493000C9493000C949300A4
:100090000C9493000C9493000C9493000C94930094
:1000A0000C9493000C9493000C9493000C94930084
:1000B0000C9493000C9493000C9493000C94930074
:1000C0000C9493000C9493000C9493000C94930064
:1000D0000C9493000C9493000C9493000C94930054
:1000E0000C94930011241FBECFEFD1E2DEBFCDBF31
:1000F00000E00CBF19E0A0E0B2E0E6EBFEE100E0BA
:100100000BBF02C007900D92AC32B107D9F719E0CE
:10011000ACE2B9E001C01D92AD34B107E1F70E9435
:100120000A0C0C94590F0C94000087B1876F87B9A3
:1001300088B1887088B908958FE99FE00197F1F739
:1001400000C000004098419880E388B9429AEFE1EE
:10015000FEE43197F1F700C000004298EFE9FFE0BC
:100160003197F1F700C000004098419888B9429A51
:10017000EFE1FEE43197F1F700C000004298EFE9AB
:10018000FFE03197F1F700C000004098419888B92E
:10019000429A8FE19EE40197F1F700C00000429877
:1001A000EFE9FFE03197F1F700C000004098419877
:1001B00080E288B9429A8FE19EE40197F1F700C08E
:1001C00000004298089598B19F7098B998B1282F6F
:1001D000207F922B98B940984198429AEFE1FEE433
:1001E0003197F1F700C00000429898B19F7098B91C
:1001F00098B18295807F892B88B940984198429A1E
:100200008FE19EE40197F1F700C000004298089545
:100210000E949C008FE99FE00197F1F700C0000069
:1002200088E20E94E30081E00E94E30086E00E94F1
:10023000E3008EE00E94E30080E80E94E30008955E
:1002400098B19F7098B998B1282F207F922B98B9B8
:10025000409A4198429AEFE1FEE43197F1F700C0ED
:100260000000429898B19F7098B998B18295807FAC
:10027000892B88B9409A4198429A8FE19EE4019770
:10028000F1F700C000004298089580E80E94E30062
:100290000895CF93DF93EC018881882331F0219674
:1002A0000E94200189918823D9F7DF91CF91089589
:1002B000823079F0833018F48130C9F405C083307E
:1002C00069F08430A1F40FC0862F81580E94E300AA
:1002D0000895862F81540E94E3000895862F8D563D
:1002E0000E94E3000895862F8D520E94E300089536
:1002F0000F931F93CF93DF938A01E901882311F0B5
:10030000662319F40E94450102C00E945801C530BD
:10031000D10571F4C80160E177E20E94320FCB0190
:10032000C09690933C0980933B090E94200103C032
:10033000C430D105B9F4C80168EE73E00E94320FF1
:10034000CB0170934609609345096AE070E00E9412
:10035000320FC09690933E0980933D090E94200180
:1003600081E001C080E0C330D10511F08130B1F4EB
:10037000C80164E670E00E94320FCB017093460919
:10038000609345096AE070E00E94320FC096909336
:10039000400980933F090E94200181E0C230D105CD
:1003A00011F08130B1F42AE030E0C801B9010E94B7
:1003B000320FCB017093460960934509B9010E9441
:1003C000320FC09690934209809341090E94200108
:1003D00081E0C130D10511F0813061F4C8016AE0DB
:1003E00070E00E94320FC0969093440980934309B5
:1003F0000E942001C630D1051CF085E40E94200136
:10040000DF91CF911F910F91089581B1806781B9DC
:1004100082B1806782B9089582B1806782B90895F8
:1004200082B1806782B982B18F7682B9089582B134
:10043000806782B982B18F7382B9089582B1806773
:1004400082B982B18F7582B908956B9A73989D9A1B
:10045000A59AE1E0F1E0808188618083E2E0F1E04B
:1004600080818F7E80838081886080830895F89466
:1004700082E08093690081E08DBB789408951F929B
:100480000F920FB60F9211248F939F938091390989
:1004900090913A09019690933A09809339099F9176
:1004A0008F910F900FBE0F901F901895E2E0F1E032
:1004B0008081877F808380818F7E80830895E2E0C2
:1004C000F1E08081886080838081806180830895ED
:1004D000E2E0F1E08081877F80838081806180839A
:1004E0000895E2E0F1E080818F7E808380818860E2
:1004F000808308950E94560210923A091092390999
:100500008FEF91EEA4E081509040A040E1F700C051
:1005100000008091390990913A09909338098093AD
:10052000370908950E945F0210923A091092390922
:100530008FEF91EEA4E081509040A040E1F700C021
:1005400000008091390990913A0990933409809381
:10055000330908950E94680210923A0910923909ED
:100560008FEF91EEA4E081509040A040E1F700C0F1
:1005700000008091390990913A099093360980934F
:10058000350908950E947A020E94AA020E949202EE
:1005900020913709309138098091350990913609B9
:1005A0008217930790F5209137093091380980918F
:1005B0003309909134098217930738F50E9410028D
:1005C00021E030E01FC0209135093091360980913B
:1005D0003309909134098217930710F50E9417028E
:1005E00023E030E00FC0209133093091340980912D
:1005F00035099091360982179307E8F40E941E028C
:1006000022E030E0822F932F089520913509309118
:10061000360980913709909138098217930798F22B
:10062000209133093091340980913709909138092C
:1006300082179307C0F208950E9405020E942502C6
:100640000E9437020895259A2D9A269A2E9A089587
:10065000E1E8F0E010828CEF8093850081E08093E8
:10066000840093E0909389008FEF809388009093AB
:100670008B0080938A0090938700809386008BEA9A
:1006800080938000109282008CE080830895109205
:100690008900682F70E080E090E00E947C0E2BE7DC
:1006A00034E14EEE5FE30E94E80D20E030E04CE0E4
:1006B00052E40E94800D0E94500E609388000895BD
:1006C00010928B00682F70E080E090E00E947C0E1A
:1006D0002BE734E14EEE5FE30E94E80D20E030E0CE
:1006E0004CE052E40E94800D0E94500E60938A00FC
:1006F000089583E0809389008FEF809388000895A8
:1007000083E080938B008FEF80938A00089589E1C6
:100710000E9460038FEF97EAA1E681509040A040CD
:10072000E1F700C0000089E90E9447038FEF9BE7D3
:10073000A2E981509040A040E1F700C000000E9473
:100740000C020E9479030E94800308958BE20E94AC
:1007500060038FEF91EEA4E081509040A040E1F75C
:1007600000C000008DE00E9447038FEF9BE7A2E9E5
:1007700081509040A040E1F700C000008DE50E944C
:1007800060038FEF97EAA1E681509040A040E1F727
:1007900000C0000089E90E9447038FEF9BE7A2E9B0
:1007A00081509040A040E1F700C000000E94790312
:1007B0000E948003089510BA11BA10920701109296
:1007C0000801089581B18F6081B982B1807F82B9BB
:1007D000EAE0F1E0808188618083EBE0F1E08081F4
:1007E000886180830895E1E2F1E010828FEF8093C9
:1007F000250191E090932401109229018093280112
:1008000010922B0180932A0110922D0180932C01CC
:1008100089EA809320018BE080830895EAE7F0E085
:10082000108210927B0080E280937C0080E880BF81
:1008300086E880830895883018F098E090937B00D4
:100840008770806280937C00EAE7F0E080818064BA
:100850008083808184FFFDCF80917900EAE7F0E01A
:1008600090819061908310927B000895CF93DF93E5
:10087000D82FC62F842F0E941B04482F8093320943
:100880008D2F6C2F50E023E030E00E947801DF9143
:10089000CF9108958093280160932A01089592B121
:1008A000907F892B82B9089585E00E944F040895B6
:1008B0008AE00E944F04089589E00E944F04089541
:1008C00086E00E944F04089580E00E944F0408953E
:1008D0000E9458048FE796E9ABE181509040A04018
:1008E000E1F700C000000E9464048DE50E946003EF
:1008F0008FEF93EDA0E381509040A040E1F700C05E
:1009000000008DE00E9447038FEF9BE7A2E9815032
:100910009040A040E1F700C000000E9454048FEF17
:1009200095EAAEE081509040A040E1F700C00000A1
:100930000E94640408950E9458048FE793E1ACE19B
:1009400081509040A040E1F700C000000E94640484
:1009500008953B9A4398089586B1886088B90895B0
:1009600086B1877F88B908950E94A9040E94230355
:100970000E9495000E94DB030E94E2030E941C0378
:100980000895F8940E94B4040E940E040E94280363
:100990000E94F303789408954F925F926F927F9232
:1009A0008F929F92AF92BF92CF92DF92EF92FF927F
:1009B0000F931F93CF93DF93CDB7DEB760970FB63A
:1009C000F894DEBF0FBECDBF29833A834B835C838F
:1009D0006D837E838F839887A986BA86CB86DC86D3
:1009E000ED86FE860F87188B8D809E80AF80B88441
:1009F0004D845E846F84788869817A818B819C8143
:100A000029853A854B855C850E947F0DE62EF72E61
:100A1000082F192F862F9F2DA02FB12FBC01CD019C
:100A200020E030E0A9010E94E40D88230CF0C7C04B
:100A30008E2D9F2DA02FB12FBC01CD0120E030E0E5
:100A400040E05FEB0E94E40D882381F4C501B4010E
:100A5000A30192010E947F0D20E030E040E85FEBAF
:100A60000E94E40D882309F496C13BC08E2D9F2D72
:100A7000A02FB12FBC01CD0120E030E040E85FEBBA
:100A80000E94E40D882381F4C501B401A301920101
:100A90000E947F0D20E030E040E05FEB0E94E40D1B
:100AA000882309F47BC10EC08E2D9F2DA02FB12F5E
:100AB000BC01CD0120E030E040E85FEB0E94E40D96
:100AC000882379F4C501B401A30192010E947F0D2E
:100AD00020E030E040E85FEB0E94E40D882309F459
:100AE00060C1C501B401A30192010E94E40D8823F5
:100AF00009F45AC18E2D9F2DA02FB12FBC01CD011D
:100B000020E030E040E85FEB0E94E40D882381F4B0
:100B1000C501B401A30192010E947F0D20E030E0E5
:100B200040E05FE30E94E40D882309F440C10EC059
:100B30008E2D9F2DA02FB12FBC01CD0120E030E0E4
:100B400040E85FEB0E94E40D882381F4C501B40105
:100B5000A30192010E947F0D20E030E040E85FE3B6
:100B60000E94E40D882309F425C11DC08E2D9F2D00
:100B7000A02FB12FBC01CD0120E030E040E05FEBC1
:100B80000E94E40D882379F4C501B401A301920108
:100B90000E947F0D20E030E040E85FE30E94E40D1A
:100BA000882309F40AC1C501B401A30192010E947E
:100BB0002E0F18160CF004C18AE090E01BC18E2D98
:100BC0009F2DA02FB12FBC01CD0120E030E0A90165
:100BD0000E94E40D8823D9F4C501B401A301920158
:100BE0000E947F0D20E030E0A9010E94E40D9927CA
:100BF00087FD9095809590958827990F881F992754
:100C0000880F991F880F991F880F991FF3C08E2D89
:100C10009F2DA02FB12FBC01CD0120E030E040E09E
:100C20005FE30E94E40D882379F4C501B401A301B8
:100C300092010E947F0D20E030E040E85FEB0E94CF
:100C4000E40D8823E1F5BFC08E2D9F2DA02FB12F7D
:100C5000BC01CD0120E030E040E85FE30E94E40DFC
:100C6000882381F4C501B401A30192010E947F0D84
:100C700020E030E040E05FEB0E94E40D882309F4BF
:100C8000A5C00EC08E2D9F2DA02FB12FBC01CD0170
:100C900020E030E040E85FE30E94E40D882379F42F
:100CA000C501B401A30192010E947F0D20E030E054
:100CB00040E85FEB0E94E40D882309F48AC0C50177
:100CC000B401A30192010E94E40D882309F484C0B9
:100CD0008E2D9F2DA02FB12FBC01CD0120E030E043
:100CE00040E85FE30E94E40D882381F4C501B4016C
:100CF000A30192010E947F0D20E030E040E05FE31D
:100D00000E94E40D882309F46AC00EC08E2D9F2D29
:100D1000A02FB12FBC01CD0120E030E040E85FE31F
:100D20000E94E40D882381F4C501B401A30192015E
:100D30000E947F0D20E030E040E85FE30E94E40D78
:100D4000882309F44FC01CC08E2D9F2DA02FB12FDA
:100D5000BC01CD0120E030E040E05FE30E94E40D03
:100D6000882371F4C501B401A30192010E947F0D93
:100D700020E030E040E85FE30E94E40D8823A9F121
:100D8000C501B401A30192010E942E0F181684F52B
:100D900086E090E02FC08FE090E02CC08DE090E0E6
:100DA00029C08EE090E026C08CE090E023C08BE06C
:100DB00090E020C08AE090E01DC089E090E01AC079
:100DC0008EE090E017C081E090E014C083E090E0F6
:100DD00011C082E090E00EC084E090E00BC085E09E
:100DE00090E008C086E090E005C087E090E002C097
:100DF00082E090E060960FB6F894DEBF0FBECDBFE4
:100E0000DF91CF911F910F91FF90EF90DF90CF90E6
:100E1000BF90AF909F908F907F906F905F904F901A
:100E20000895CF93DF93A62FB72FE82FF92F20E057
:100E300030E04FE057E28D919D91009741F4808121
:100E40009181481759071CF0C22FD32FAC012F5F97
:100E50003F4F32962C31310571F78C2F9D2FDF914A
:100E6000CF9108952F923F924F925F926F927F920F
:100E70008F929F92AF92BF92CF92DF92EF92FF92AA
:100E80000F931F93CF93DF93CDB7DEB7C45BD040F2
:100E90000FB6F894DEBF0FBECDBF1C014A01CF5480
:100EA000DF4F39832883C15BD040CD54DF4F198396
:100EB0000883C35BD04081E090E0F9019183808397
:100EC000AE014F5F5F4F8E010F581F4FCE01C99685
:100ED000D801FA012FE037E2219331931D921D9240
:100EE000E817F907C9F7FB01EE0FFF1FA1E0B0E01B
:100EF000AC0FBD1FAE0FBF1F11961C921E9221E7B3
:100F000030E02C0F3D1FE20FF31F118210828FEF94
:100F10009FEFD9969C938E93D8976B01AA24BB24FC
:100F2000662477246394C755DF4F4883C95AD0405D
:100F3000C655DF4F5883CA5AD040C555DF4F088386
:100F4000CB5AD040C455DF4F1883CC5AD0402E0125
:100F50000894411C511CC355DF4F4882CD5AD040E4
:100F6000C255DF4F5882CE5AD040C155DF4F6883FB
:100F7000CF5AD040C055DF4F7883C05BD0401EC0F1
:100F8000A114B10489F0C355DF4F8881CD5AD040F8
:100F9000C255DF4F9881CE5AD040BE016F587F4F67
:100FA0000E9411076C010AC0C155DF4FC880CF5A9B
:100FB000D040C055DF4FD880C05BD040C601880FFD
:100FC000991F41E750E04C0F5D1F840F951FFC01F6
:100FD00071826082C814D90409F05FC0F601EE0F77
:100FE000FF1FEC0FFD1F81AD92ADFFEF8F3F9F07FD
:100FF00009F1CF54DF4FE881F981C15BD0402081F6
:1010000031812F5F3F4FFC01EE0FFF1F41E050E0A9
:101010004C0F5D1FE40FF51F80AD91AD5FEF8F3F6B
:10102000950779F7CF54DF4FE881F981C15BD04054
:1010300031832083A40120E030E0CF54DF4FA8812A
:10104000B981C15BD040CD54DF4F68817981C35BEA
:10105000D0408D919C911197281739070CF07EC0D4
:10106000FFEF4F3F5F0709F479C0821B930B019795
:10107000FC01EE0FFF1FE60FF71F51834083FA01BB
:10108000EE0FFF1F41E050E04C0F5D1FE40FF51F16
:1010900040AD51AD2F5F3F4FDCCFC601880F991F88
:1010A000880F991F880F991F9C01220F331F220F51
:1010B000331F220F331FF901E81BF90B81010E0FBB
:1010C0001F1FC755DF4FA881C95AD040C655DF4FF3
:1010D000B881CA5AD040C555DF4F6881CB5AD0403D
:1010E000C455DF4F7881CC5AD04040E050E0C60173
:1010F000880F991F7201E80EF91EFB0181919191F1
:10110000BF010097E9F4F801E40FF51F8081918198
:101110000097B1F0F70120813181280F391F8D919F
:101120009C911197281739075CF4E9E3F0E0EC0F84
:10113000FD1FE40FF51FD182C08211963C932E93C0
:101140004E5F5F4F129648335105B9F60894A11CC3
:10115000B11CFCE1AF16B10409F012CFCC54DF4F43
:101160000FB6F894DEBF0FBECDBFDF91CF911F91B8
:101170000F91FF90EF90DF90CF90BF90AF909F9036
:101180008F907F906F905F904F903F902F90089539
:101190000E94600480912809609126090E944A04F7
:1011A0008FEF99E6A8E181509040A040E1F700C0A0
:1011B000000082E00E941B0490912A099817C8F74A
:1011C00081E00E941B0490912A09891790F783E01F
:1011D0000E941B0490912A09891758F70E94640401
:1011E00008950E945C0480912809609126090E945C
:1011F0004A048FEF9FE0A7E281509040A040E1F7C2
:1012000000C0000082E00E941B0490912A099817F8
:10121000C8F781E00E941B0490912A09891790F772
:1012200083E00E941B0490912A09891758F70E94B5
:1012300064040895681B790B12F4605F7F4F611599
:10124000710539F1693071051CF00E94C8080895D4
:10125000683071051CF40E94F108089580912809F6
:1012600060912609645C845C0E944A040E945C04CC
:101270008FEF96E4A6E881509040A040E1F700C0CF
:1012800000000E94640480912809609126090E9450
:101290004A0408958F929F92AF92BF92CF92DF92AD
:1012A000EF92FF920F931F93CF93DF93082F10922B
:1012B0004A091092490981E00E941B04C82F82E06C
:1012C0000E941B04D82F83E00E941B04182F82E089
:1012D00061E041E00E94360482E065E042E00E9465
:1012E000360482E069E043E00E94360484E00E9414
:1012F0001B0490912109981748F481E090E09093A5
:101300004C0980934B090E946404F1C080912A0922
:101310008C1788F48D1778F4811768F40E945404B0
:101320008FEF96E1A1E181509040A040E1F700C02D
:1013300000000E9464040E94540480912809609176
:1013400026090E944A04002309F4D1C00F2EF8E2B6
:10135000AF2EF9E0BF2EF02D0F2EF6E2CF2EF9E0E2
:10136000DF2EF02D0F2EF3E0EF2EFF24F02D88243A
:101370009924839481E00E941B04C82F82E00E947C
:101380001B04D82F83E00E941B04182F84E00E94C6
:101390001B0490912109981778F481E090E09093D4
:1013A0004C0980934B090E9464040E94080180E06C
:1013B00092E00E9449019BC080912A098D1708F094
:1013C00066C00E94540480912A09C81748F418176F
:1013D00038F4D5018C91F60160810E944A0484C0E2
:1013E0008C1758F4181748F4D5018C91F6016081D8
:1013F000685D88520E944A0477C0811758F4C81764
:1014000048F4D5018C91F60160816852885D0E9494
:101410004A046AC081E061E04C2F50E097010E94CD
:10142000780181E065E04D2F50E097010E9478013E
:1014300081E069E0412F50E097010E94780101505E
:101440000E946404D5018C91F60160810E944A04D7
:101450000E94540480914709909148098130910578
:1014600051F48FEF9FE0A7E281509040A040E1F758
:1014700000C0000009C08FEF95EBA5E381509040BC
:10148000A040E1F700C000000E9464042DC08C174A
:1014900050F490924A098092490980E0D6016C91FB
:1014A0000E944A0421C0811750F4F0924A09E09248
:1014B0004909F501808160E00E944A0415C08091CD
:1014C000490990914A098130910531F480E0D601B3
:1014D0006C910E944A0408C08330910529F4F501FB
:1014E000808160E00E944A04002309F043CFDF912D
:1014F000CF911F910F91FF90EF90DF90CF90BF9011
:10150000AF909F908F9008952F923F924F925F924D
:101510006F927F928F929F92AF92BF92CF92DF9203
:10152000EF92FF920F931F93CF93DF93CDB7DEB768
:10153000C054D0400FB6F894DEBF0FBECDBF2C0113
:101540009B015CAF4BAF1A821982DC016D917C91DB
:1015500081E093E0A9019E012F5F3F4F8E010D5F57
:101560001F4F0E94320789819A81823091050CF4C5
:1015700037C10F2EF5E06F2E7724F02D6C0E7D1EF7
:101580002224332423947EAE6DAEF30180819181B9
:10159000880F991F880F991F880F991FDC01A75F7B
:1015A000BD4FF20180819181FC01EE0FFF1FEE0F14
:1015B000FF1FEE0FFF1FCF01875F9D4F21969FAF4B
:1015C0008EAF2197EBADFCAD808091802C91119670
:1015D0003C91119712964C91129713965C91139728
:1015E00014966C91149715967C91159716968C917C
:1015F000169717969C912196AEADBFAD2197AC90F2
:101600001196BC9011971296CC9012971396DC907D
:1016100013971496EC9014971596FC9015971696C0
:101620000C91169717961C910E94CC0490932F0949
:1016300080932E090E940801F2014081518181E0CE
:1016400061E021E030E00E947801D3014D915C918E
:1016500081E064E021E030E00E947801EBADFCAD78
:101660004081518181E068E021E030E00E94780112
:101670008FEF93EDA0E381509040A040E1F700C0D0
:10168000000060912E0970912F09ABADBCAD8D911A
:101690009C910E941A0980912E0990912F09EBAD1F
:1016A000FCAD91838083D2018D919C9111978731FC
:1016B000910539F4F3018081918188319105B1F46C
:1016C0000BC08831910591F4ADADBEAD8D919C916B
:1016D00011978731910551F48AEA96EEA6E9B1E0B7
:1016E00081509040A040B040D9F7000081E00E94B6
:1016F0004A0980914B0990914C09009709F45BC00D
:10170000F101EE0FFF1FEC0FFD1F63817481D20109
:101710008C9111969C91880F991F880F991F9C019D
:10172000220F331F220F331F220F331F281B390BA9
:10173000260F371FA1E0B3E0F901EE0FFF1FEA0FFC
:10174000FB1F11821082F20140815181CB01880F71
:10175000991F880F991F9C01220F331F220F331FDF
:10176000220F331F281B390B240F351F220F331F65
:10177000A20FB31F1D921C920E9460048FEF98E687
:10178000ADE281509040A040E1F700C000000E940F
:10179000640481E00E944A0980912E0990912F09EA
:1017A000089660E170E00E94460FABADBCAD1196AB
:1017B0009C938E9315C0E2E0F0E06E0E7F1EADADFF
:1017C000BEAD8D919C911197F20191838083089415
:1017D000211C311C89819A81281639060CF4D3CE3C
:1017E000C05CDF4F0FB6F894DEBF0FBECDBFDF91F8
:1017F000CF911F910F91FF90EF90DF90CF90BF900E
:10180000AF909F908F907F906F905F904F903F90A0
:101810002F9008952F923F924F925F926F927F92F6
:101820008F929F92AF92BF92CF92DF92EF92FF92F0
:101830000F931F93CF93DF930E94C1040E947903FB
:101840000E9480030E9408010E949C00809122094E
:1018500090912309181619060CF03AC10F2EF5EFD6
:10186000CF2EF2E0DF2EF02D442455248824992435
:1018700066247724AA24BB2404E219E00F2EF0E3A7
:10188000EF2EF9E0FF2EF02D0F2EFDEE2F2EF2E0C1
:101890003F2EF02DE60168817981C801A7010E94E1
:1018A000840A80914B0990914C09009781F0109225
:1018B0004C0910924B0968817981C801A7010E94E7
:1018C000840A80914B0990914C09009781F780918F
:1018D00030099091310960E070E00E941A0910927D
:1018E0003109109230090E9464040E94680484E067
:1018F0000E941B0490912109891720F489E90E9414
:101900004703D7C00E94C2028230910509F04AC045
:101910000E948703888199819093250980932409E7
:101920001092310910923009C401880F991F875114
:101930009D4FFC0160817181C801A7010E94840A4A
:1019400080914B0990914C090097B1F0C401880F28
:10195000991FEC01C751DD4F10924C0910924B09B1
:1019600068817981C801A7010E94840A80914B098E
:1019700090914C09009781F780913009909131093D
:1019800068E070E00E941A0988E090E090933109C5
:10199000809330090E949B040E94A6030894811C36
:1019A000911C87C08130910509F040C00E948703D7
:1019B000C301880F991F820D931DFC016081718105
:1019C000C801A7010E94840A80914B0990914C099B
:1019D0000097B1F0C301880F991FE101C80FD91F0B
:1019E00010924C0910924B0968817981C801A701B6
:1019F0000E94840A80914B0990914C09009781F7CD
:101A0000809130099091310968E070E00E941A09D4
:101A100088E090E090933109809330090E949B0404
:101A20000E94A6030894611C711C43C08330910579
:101A300009F03FC00E948703C201880F991F845D8F
:101A4000964FFC0160817181C801A7010E94840A40
:101A500080914B0990914C090097B1F0C201880F19
:101A6000991FEC01C45DD64F10924C0910924B099E
:101A700068817981C801A7010E94840A80914B097D
:101A800090914C09009781F780913009909131092C
:101A900068E070E00E941A0988E090E090933109B4
:101AA000809330090E949B040E94A6030894411C65
:101AB000511C0894A11CB11C82E090E0C80ED91EF4
:101AC0008091220990912309A816B9060CF4E2CE60
:101AD0000E94AC0480E090E0DF91CF911F910F91C4
:101AE000FF90EF90DF90CF90BF90AF909F908F903E
:101AF0007F906F905F904F903F902F900895505837
:101B0000BB27AA270ED070C161D130F066D120F07A
:101B100031F49F3F11F41EF456C10EF4E095E7FB3B
:101B20004CC1E92F72D180F3BA176207730784079B
:101B3000950718F071F49EF58AC10EF4E0950B2E0E
:101B4000BA2FA02D0B01B90190010C01CA01A0010F
:101B50001124FF27591B99F0593F50F4503E68F16A
:101B60001A16F040A22F232F342F4427585FF3CFAB
:101B7000469537952795A795F0405395C9F77EF47C
:101B80001F16BA0B620B730B840BBAF09150A1F0C5
:101B9000FF0FBB1F661F771F881FC2F70EC0BA0F4B
:101BA000621F731F841F48F4879577956795B795D3
:101BB000F7959E3F08F0B3CF9395880F08F09927CB
:101BC000EE0F979587950895D4D008F481E0089595
:101BD0000CD00AC102D140F0F9D030F021F45F3FBF
:101BE00019F0EBC0511134C1EEC00FD198F3992315
:101BF000C9F35523B1F3951B550BBB27AA276217D1
:101C00007307840738F09F5F5F4F220F331F441F15
:101C1000AA1FA9F333D00E2E3AF0E0E830D091504D
:101C20005040E695001CCAF729D0FE2F27D0660F3A
:101C3000771F881FBB1F261737074807AB07B0E879
:101C400009F0BB0B802DBF01FF2793585F4F2AF08F
:101C50009E3F510568F0B1C0FBC05F3FECF3983E7A
:101C6000DCF3869577956795B795F7959F5FC9F7EC
:101C7000880F911D9695879597F90895E1E0660F75
:101C8000771F881FBB1F621773078407BA0720F0EE
:101C9000621B730B840BBA0BEE1F88F7E095089557
:101CA000BCD088F09F5790F0B92F9927B751A0F07A
:101CB000D1F0660F771F881F991F1AF0BA95C9F7E0
:101CC00012C0B13081F0C3D0B1E00895C0C0672F19
:101CD000782F8827B85F39F0B93FCCF38695779590
:101CE0006795B395D9F73EF4909580957095619579
:101CF0007F4F8F4F9F4F0895E89409C097FB3EF4A4
:101D000090958095709561957F4F8F4F9F4F992348
:101D1000A9F0F92F96E9BB279395F69587957795C6
:101D20006795B795F111F8CFFAF4BB0F11F460FF86
:101D30001BC06F5F7F4F8F4F9F4F16C0882311F0DE
:101D400096E911C0772321F09EE8872F762F05C0F2
:101D5000662371F096E8862F70E060E02AF09A958D
:101D6000660F771F881FDAF7880F9695879597F982
:101D70000895990F0008550FAA0BE0E8FEEF16161C
:101D80001706E807F907C0F012161306E407F5076F
:101D900098F0621B730B840B950B39F40A2661F0E3
:101DA000232B242B252B21F408950A2609F4A14086
:101DB000A6958FEF811D811D089597F99F6780E893
:101DC00070E060E008959FEF80EC089500240A948D
:101DD0001616170618060906089500240A94121606
:101DE0001306140605060895092E0394000C11F439
:101DF000882352F0BB0F40F4BF2B11F460FF04C0E6
:101E00006F5F7F4F8F4F9F4F089557FD9058440F3E
:101E1000551F59F05F3F71F04795880F97FB991F49
:101E200061F09F3F79F08795089512161306140606
:101E3000551FF2CF4695F1DF08C016161706180693
:101E4000991FF1CF86957105610508940895E8946E
:101E5000BB2766277727CB0197F908958ADF08F417
:101E60008FEF0895AA1BBB1B51E107C0AA1FBB1F20
:101E7000A617B70710F0A61BB70B881F991F5A9516
:101E8000A9F780959095BC01CD01089597FB092E87
:101E900007260AD077FD04D0E5DF06D000201AF42B
:101EA000709561957F4F0895F6F7909581959F4FB6
:061EB0000895F894FFCF35
:101EB6004F42535441434C450000000000000000CF
:101EC600000000803F00000000000000400000000D
:101ED60000000040400000000000008040000000BC
:101EE600000000A040000000000000C0400000000C
:101EF6000000000000000000400000803F000000DD
:101F06004000004040000000400000A040000000EB
:101F1600400000C0400000004000000040000040BB
:101F260040000080400000404000000000000080AB
:101F3600400000803F000080400000C03F0000805D
:101F46004000009040000080400000A0400000805B
:101F5600400000C04000008040000000000000A0DB
:101F6600400000C0400000A040000040400000A02B
:101F760040000040400000E0400000803F000000BC
:101F86004100004040000000410000A04000000069
:101F960041000040400000404014000F00120015B0
:101FA6000018001A000000010002000400050006E7
:101FB6000000000100000000000000000000000218
:101FC600000000000000000000000000000000000B
:101FD60000000000000000000000000000000000FB
:101FE60000000000000000000001000000010000E9
:101FF60000000000000000000002000000000000D9
:1020060000000000000000000000000000000000CA
:1020160000000000000000000000000000000000BA
:1020260000000001000000010000000000000000A8
:10203600000000000000000000000000000000009A
:10204600000000000000000000000000000000008A
:102056000000000000000000000000000001000079
:102066000001000000000000000000020000000067
:10207600000000000000000000000000000000005A
:10208600000000000000000000000000000000004A
:102096000000000000000001000000010000000038
:1020A600000000000000000000000000000000002A
:1020B600000000000000000000000000000000001A
:1020C600000000000000000000000000000000000A
:1020D60000010000000100000000000000020000F6
:1020E60000000000000000000000000000000000EA
:1020F60000000000000000000000000000000000DA
:1021060000000000000000000000000100000000C8
:1021160000000000000000020000000000000000B7
:1021260000000000000000000000000000000000A9
:102136000000000000000000000100000000000098
:102146000000000000000000000100000000000088
:102156000000000000020000000000000000000077
:102166000000000000000000000000000000000069
:102176000000000200000000000000000000000156
:102186000000000000000000000200000000000047
:102196000000000000000000000000000000000039
:1021A6000000000000000000000000000000000227
:1021B6000000000000000000000000000000000019
:1021C6000001000100000000000000000000000007
:1021D60000000000000000000000000000000001F8
:1021E60000000000000000000000000200000000E7
:1021F60000000000000000010000000200000000D6
:1022060000000000000000000000000000000000C8
:1022160000000000000000000000000000000000B8
:1022260000000000000200000000000000010000A5
:102236000000000000000000000000000000000296
:102246000000000000000000000000000000000088
:102256000000000000000000000000000000000078
:102266000002000100000000000000000000000065
:102276000001000000000000000000000000000057
:102286000000000000000000000000000000000048
:102296000000000000000000000000010002000035
:1022A6000000000000000000000000010000000027
:1022B6000000000000000000000000000000000018
:1022C6000000000000000000000000000000000206
:1022D60000000000000000000000000000000001F7
:1022E60000000000000000000001000000000000E7
:1022F60000000000000000000000000000000000D8
:1023060000000000000000000000000000000000C7
:1023160000000000000100000001000000000000B5
:1023260000000000000000000000000000000000A7
:102336000000000000000000000000000000000097
:102346000000000000000000000100000000000185
:102356000000000000000000000000000002000075
:102366000000000000000000000000000000000067
:102376000000000000000000000000000000000057
:102386000000000100000000000000000001000045
:102396000000000000020000000000000000000035
:1023A6000000000000000000000000000000000027
:1023B6000000000000000000000000000000000017
:1023C6000000000100000001000000000000000005
:1023D60000000000000000000000000000000000F7
:1023E60000000000000000000000000000000002E5
:1023F60000000000000000000000000000010000D6
:1024060000000001000000000000000000000000C5
:1024160000000000000000000000000000000000B6
:1024260000000000000000000000000000010000A5
:102436000000000000000000000000000000000096
:102446000000000000000000000000000000000086
:102456000000000000000000000000000000000076
:102466000000000000000000000000000000000165
:102476000000000000000000000000000000000056
:102486000000000000000000000000000000000046
:102496000000000000000000000000000000000036
:1024A6000002000200000000000000000000000121
:1024B6000000000000000000000000000000000016
:1024C6000000000000000000000000000000000006
:1024D60000000000000000000000000000000000F6
:1024E60000000000000100000000000100000000E4
:1024F60000000000000000000000000000000000D6
:1025060000000000000000000000000000000000C5
:1025160000000000000000000000000000000000B5
:1025260000000002000000000000000000000000A3
:102536000000000000000000000000000000000095
:102546000000000000000000000000000000000085
:102556000000000000000000000200000002000071
:102566000000000000000000000000000000000065
:102576000000000000000000000000000000000055
:102586000000000000000000000000000000000045
:102596000000000200000000000000000000000033
:1025A6000000000000000000000000010000000024
:1025B6000000000000000000000000000000000015
:1025C6000000000000000000000000000000000005
:0C25D600008C06001B00820078003C0016
:00000001FF
