:100000000C9434000C9461000C9490000C945100FA
:100010000C9451000C9451000C9451000C9451001C
:100020000C9451000C9451000C9451000C9451000C
:100030000C9451000C9451000C9451000C945100FC
:100040000C9451000C9451000C9451000C945100EC
:100050000C9451000C9451000C9451000C945100DC
:100060000C9451000C94510011241FBECFEFD8E026
:10007000DEBFCDBF11E0A0E0B1E0E0EAF1E002C0F8
:1000800005900D92A430B107D9F711E0A4E0B1E0DA
:1000900001C01D92A630B107E1F70E94B5000C9493
:1000A000CE000C94000084B1836084B985B18C7F4C
:1000B00085B908958CE08BB91092690083E08DBBFF
:1000C00008951F920F920FB60F9211248F939F9352
:1000D000AF93BF9385B18C7F85B9809102019091D8
:1000E0000301909581959F4F9093030180930201A6
:1000F0008FEF93E2A4EF81509040A040E1F700C061
:10010000000081E090E09093050180930401BF918D
:10011000AF919F918F910F900FBE0F901F901895E8
:100120001F920F920FB60F9211248F939F9380917D
:100130000201909103018130910519F482E085B9A3
:1001400002C081E085B981E090E090930501809341
:1001500004019F918F910F900FBE0F901F901895E3
:100160000E9453000E945A0008950E94B00080919E
:10017000040190910501009779F0F8948FEF91EECA
:10018000A4E081509040A040E1F700C00000109230
:10019000050110920401EBCF7894E9CFF894FFCFDA
:0401A0000100010059
:00000001FF
