:100000000C9434000C9461000C949D000C945100ED
:100010000C9451000C9451000C9451000C9451001C
:100020000C9451000C9451000C9451000C9451000C
:100030000C9451000C9451000C9451000C945100FC
:100040000C9451000C9451000C9451000C945100EC
:100050000C9451000C9451000C9451000C945100DC
:100060000C9451000C94510011241FBECFEFD8E026
:10007000DEBFCDBF11E0A0E0B1E0EAEBF1E002C0ED
:1000800005900D92A430B107D9F711E0A4E0B1E0DA
:1000900001C01D92A830B107E1F70E94C2000C9484
:1000A000DB000C94000084B1836084B985B18C7F3F
:1000B00085B908958CE08BB91092690083E08DBBFF
:1000C00008951F920F920FB60F9211248F939F9352
:1000D000AF93BF938091040190910501009739F48B
:1000E00081E090E090930501809304011DC085B1EB
:1000F0008C7F85B980910201909103019095819543
:100100009F4F90930301809302018FEF93E2A4EF3E
:1001100081509040A040E1F700C0000081E090E0F5
:100120009093070180930601BF91AF919F918F91AA
:100130000F900FBE0F901F9018951F920F920FB641
:100140000F9211248F939F9380910201909103014C
:100150008130910519F482E085B902C081E085B94A
:1001600081E090E090930701809306019F918F9129
:100170000F900FBE0F901F9018950E9453000E9481
:100180005A0008950E94BD008091060190910701D8
:10019000009779F0F8948FEF91EEA4E081509040B1
:1001A000A040E1F700C00000109207011092060184
:0A01B000EBCF7894E9CFF894FFCF6D
:0401BA00010001003F
:00000001FF
